:020000040800F2
:10000000687400209D01000875700008576300089F
:100010007170000877030008D58B0008000000000D
:1000200000000000000000000000000069820008DD
:10003000853F000800000000E1810008A982000857
:10004000B7010008B7010008B7010008B7010008B0
:10005000B7010008B7010008B7010008B7010008A0
:10006000B7010008B7010008B7010008B701000890
:10007000B7010008B7010008B7010008B701000880
:10008000B7010008B7010008B70100089D03000888
:100090007D0300088D030008B7010008A33F000896
:1000A000B7010008B7010008B7010008B701000850
:1000B00075830008B7010008B7010008B701000800
:1000C000B7010008B7010008B7010008B701000830
:1000D000B7010008B7010008B7010008E989000866
:1000E000873F0008B7010008B7010008B701000802
:1000F000B7010008B7010008B7010008B701000800
:10010000B7010008B7010008B7010008B7010008EF
:1001100021850008B70100082984000839840008F7
:10012000B7010008B7010008B7010008B7010008CF
:10013000B7010008B7010008B7010008B7010008BF
:10014000B7010008B7010008B7010008B7010008AF
:10015000B7010008B7010008B7010008B70100089F
:10016000B7010008B7010008B7010008B70100088F
:10017000B7010008B7010008B7010008000000003F
:10018000B7010008B7010008DFF80CD000F0B0F8A4
:1001900000480047659900086874002006488047B9
:1001A00006480047FEE7FEE7FEE7FEE7FEE7FEE75C
:1001B000FEE7FEE7FEE7FEE761830008890100082D
:1001C0002DE9F05F0546002092469B46884606468C
:1001D000814640241BE0284641464746224600F01F
:1001E00076F853465A46C01A914110D31146184624
:1001F000224600F05DF82D1A67EB01084F462246B3
:100200000120002100F054F817EB00094E41201E98
:10021000A4F10104DFDC484631462A464346BDE8E6
:10022000F09F10B5431A934209D28318881803E04F
:1002300010F8011D03F8011D521EF9D210BD40EA4D
:1002400001039B0703D009E008C9121F08C0042A54
:10025000FAD203E011F8013B00F8013B521EF9D23B
:1002600010BDD2B201E000F8012B491EFBD270474D
:100270000022F6E710B513460A4604461946FFF772
:10028000F0FF204610BD421C10F8011B0029FBD1D5
:10029000801A704710B54843044609F0E5FB002872
:1002A00005D00021002C02D0641E0155FAE710BDD4
:1002B000202A04DB203A00FA02F100207047914026
:1002C000C2F1200320FA03F3194390407047202A1B
:1002D00004DB203A21FA02F00021704721FA02F3F0
:1002E000D040C2F1200291400843194670470000F7
:1002F000064C074D06E0E06840F0010394E8070073
:1003000098471034AC42F6D3FFF742FF6CB00008B8
:100310008CB0000870B58C1810F8015B15F007035D
:1003200001D110F8013B2A1106D110F8012B03E08E
:1003300010F8016B01F8016B5B1EF9D12B0705D496
:100340000023521E0DD401F8013BFAE710F8013BDF
:10035000CB1A921C03E013F8015B01F8015B521EFB
:10036000F9D5A142D8D3002070BD014648780A785B
:1003700040EA0220704700BFFEE7000010B50248C7
:1003800004F0BBF910BD00002C04002010B5024899
:1003900004F0B3F910BD00002C04002010B5024891
:1003A00004F0ABF910BD00002C04002030B5002291
:1003B00000BF00BFEFF31081C16272B600BFC16918
:1003C00011B10021C1610122818C00291EDD018A49
:1003D0001AE001EB4104C36803EBC4031B698BB152
:1003E00001EB4104C36803EBC4035B6953B1002311
:1003F00001EB4105C46804EBC5042361838C5B1EDB
:10040000838402224B1E99B20029E2D1C16A81F392
:10041000108800BF1AB1418A41F08001418230BD8D
:10042000FEB504460D46164614B94FF0FF30FEBD2A
:10043000002061684861284600F0FCFA0B21E06862
:100440008DE8430012232946D4E9010200F03EF86A
:1004500007463846EBE72DE9F04104460F460020F9
:100460002062E061A08C20B3E56800BF00BFEFF31D
:100470001080E06272B600BF268A12E0286968B177
:100480002946204609F088FD38B100202861A08C5B
:10049000401EA0846869E06100E004E0701E86B23E
:1004A0001835002EEAD100BFE06A80F3108800BF43
:1004B00000BFBDE8F08110B504462CB1206818B12A
:1004C0002168886804F098FB10BD00002DE9F04712
:1004D0008AB004460E4615461F46DDE9139ADDF83C
:1004E00048801CB115B1B8F1000F04D14FF0FF30B6
:1004F0000AB0BDE8F0872660334804606560278154
:10050000C4F80C80A4F81090002060826061A061A3
:10051000E061012020620020A084A06200BF18E0FA
:10052000002100EB400225F822104FF6FF7100EB8E
:10053000400205EB82025180002100EB400205EBF6
:100540008202516000EB400205EB82029160411C87
:1005500088B2B842E4DB002007E0002100EB400253
:1005600008EBC2021161411C88B24845F5DBF06816
:1005700080472068806800681449884202D10020C2
:10058000059001E00E2005900020069001200790C4
:1005900000200090019002900390049001200890A8
:1005A0000E2009906946B06803F03CFF10B14FF08F
:1005B000FF309DE71321B06803F074FE10B14FF0D7
:1005C000FF3095E7002093E72400002000640040FE
:1005D0000021026892681268926902F00701826A3B
:1005E0008A4218D0428A816201F0040313B142F0BA
:1005F00004020EE04FF6F8431A4001F0010313B174
:1006000040F201131A4301F0020313B140F2022336
:100610001A43428200BF70472DE9F04F8DB0044667
:1006200091469A46DDE91C760CB100BF04E04FF01C
:10063000FF300DB0BDE8F08FB9F1000F01D1D4F853
:100640001C9000202060FF2F02D10120206006E0D6
:10065000012F01DB7F2F02DD4FF0FF30E9E7E06B78
:1006600000F026FD05460DB12846E2E7206810B1EE
:100670006FF01200DDE7744800684068183002210E
:10068000CDE90476CDE902106F48006840686C300F
:100690001121CDE90010DFF8B0C1236ADCF800C0F9
:1006A000DCF804C00CF10C026168E06900F0F4F9B8
:1006B00005460DB12846BCE707F5E06009226168F0
:1006C000CDE90A06CDE9081200216068CDE90410E1
:1006D00006910B4607916068DDE91712CDE9020328
:1006E000CDE90012584A1268526802F190013B4667
:1006F0004A46206901F074F805460DB1284698E78E
:1007000009225149606809684968843101AB45C3D1
:10071000009108234946D4E9050200F047FB05464D
:100720000DB1284685E748480068406800F1B40BE1
:100730004FF0000824E008F1070080B208F107023A
:1007400092B26168CDE90406CDE902216068199989
:100750005A460BF10C0BCDE90010C8EBC80303EBB4
:100760004303616A01EBC3003B46514601F082FF3F
:1007700005460DB128465CE708F101000FFA80F844
:10078000B8F1010FD7DB30480068406800F1C00BBA
:100790004FF000081FE008F1080081B208F10802DC
:1007A00092B2606802AB43C3019260685A460BF193
:1007B0000C0B0090C8EB0813A16A01EBC3003B4689
:1007C000514601F074FE05460DB1284631E708F1A7
:1007D00001000FFA80F8B8F1010FDCDB00961A4B2C
:1007E00062681B685B6803F160010223E06A02F043
:1007F00031FD05460DB128461BE701216068CDE9B2
:100800000310CDE905161048616800684068A830FB
:100810000D4A126852683C32CDE9002002910A4923
:100820000968496801F1300307490968496801F11D
:1008300024024946206B02F067FB05460DB12846AD
:10084000F7E60020F5E60000FC0300202DE9F04F5C
:1008500089B00446884691461E46DDF848A024B972
:100860004FF0FF3009B0BDE8F08F012E03DB7F2E83
:1008700001DC206838B1206810B16FF01200F1E798
:100880004FF0FF30EEE73C480068406800F1CC0BC9
:10089000394800684068FC30089000252DE00020B1
:1008A0000790042D06DA4FF4007000EB0520304469
:1008B00080B20790E81C81B26268089800F10C03CE
:1008C000CDE9041A0893CDE9020258460BF10C0B4E
:1008D0000799CDE90010C5EB451202EB4202616BAE
:1008E00001EB820042464946236B01F031F907468D
:1008F0000FB13846B6E7681C05B2042DCFDB1E48A1
:100900000068406800F5967B1B480068406800F569
:10091000AE70089000252BE000200790042D06DA29
:100920004FF4C07000EB0520304480B20790E81C03
:1009300081B26268089800F10C03CDE9041A0893AB
:10094000CDE9020258460BF10C0B0799CDE90010D6
:100950005B216943A26B02EB810042464946236B4F
:1009600002F03EFD07460FB138467BE7681C05B232
:10097000042DD1DB002075E7FC0300202DE9F043B6
:100980000446DDE90775099E4FF0000C2CB325B332
:100990001EB32089884220DD01EB4109D4F8048090
:1009A00008EB890045608660C2F30A0817B14FF46E
:1009B000004901E04FF0000948EA0908A0F800806A
:1009C000C3F30A0848F40048A0F80280D4F818805D
:1009D000B8F1000F00D000BF01E04FF0FF3C6046CF
:1009E000BDE8F08370B504460D460026286938B18D
:1009F000206A18B9608A40F0080060826FF008062B
:100A000000BF00BFEFF31080E06272B600BF29465E
:100A1000204609F0C1FA10B16869E06104E00120E4
:100A20002861A08C401CA084E06A80F3108800BF7D
:100A3000304670BD10B5044614B1A06804F0DCF86F
:100A400010BD10B50446206830B12168886804F0F4
:100A5000A4F808B90120606110BDF0B50446DDE9D5
:100A600005560020B4B1278A8F4213DD01EB410CFB
:100A7000E76807EBCC00C2F30A0713B14FF4004C50
:100A800001E04FF0000C47EA0C07076005710027F2
:100A900007614661F0BD00002DE9F04F87B00446C4
:100AA0000F4692469B46DDE91495DDF84480002010
:100AB0000690A4B1BAF1000F11D0BBF1000F02D122
:100AC000109802280BDAB8F1000F08D03FB1B9F145
:100AD000010F04DBB9F17F0F01DC139820B94FF04F
:100AE000FF3007B0BDE8F08F50212046FFF7C0FB74
:100AF0006761002301221946504606F02BFBE06097
:100B0000E06838B91DB1504606F000FB28606FF070
:100B10000B00E6E70020E1680870C4F818B01098F0
:100B200020770020019005A80290012003900398EF
:100B3000042300904046DDE9011206F01DFC064644
:100B400000BF1EB923490598084040B11DB1404679
:100B500006F0DCFA286016B16FF00B00C1E709F16E
:100B6000800004900121059801EBE070606224632D
:100B7000194961631949A16304F13001404606F047
:100B80007BFA06463EB11DB1404606F0BFFA28602A
:100B90006FF00B00A5E784F8289000200821034699
:100BA000CDE900103846049A1299FFF756FFE0622B
:100BB000E06A10B94FF0FF3093E72464084961649C
:100BC0000849A16404F14001139806F055FA06980B
:100BD00087E7000000F8FF7FF17400084D760008F9
:100BE00059740008C57600082DE9F84F0446884678
:100BF00091469A466069458A208AA84264D0208A34
:100C000080EA0506258240F20110304070B10020D4
:100C1000009040F20110284008B1012000E00020BF
:100C2000014600230122204602F04FFE06F002009A
:100C300048B1002048F220130722C5F3400100907C
:100C4000204602F042FE06F0040048B1002048F2BF
:100C500040131222C5F380010090204602F035FEB9
:100C600006F0080048B1002048F210131422C5F322
:100C7000C0010090204602F028FE06F0800048B136
:100C800000204FF401431522C5F3C0110090204607
:100C900002F01BFE06F4007048B1002048F2201359
:100CA0000622C5F340210090204602F00EFE06F415
:100CB000006040B1002013231A46C5F3C021009004
:100CC000204602F002FE00BF0027607908B147F01D
:100CD0000107A07808B9E07808B147F01007207A3A
:100CE00008B9607A08B147F08007E0680770B8F18A
:100CF000000F01D1BDE8F88F207F022845DBA67FD9
:100D0000607FB04240D0E06A006960BBA06950F8E3
:100D1000360040EA0740A16941F83600A06900EBBF
:100D2000C600E16A026841F8052F40684860E16A40
:100D30006069FFF757FE701CC0B20646217F8842EB
:100D400001DA304600E00020A077E07F01280BD1D7
:100D50000220E07700204FF48053202201210090F0
:100D6000204602F0B2FD0FE0E07F02280CD1A07F08
:100D7000617F884208D10020E077034620220146A7
:100D80000090204602F0A1FD00BF00BFB2E730B5E1
:100D900002460B794C1D012B06D125786DB255709A
:100DA00000BF0125D56000BF30BD00002DE9FF4F19
:100DB00087B004468A469346179E149D44B1BAF103
:100DC000000F05D0BBF1000F02D00DB1159820B96E
:100DD0004FF0FF300BB0BDE8F08F30212046FFF719
:100DE00047FAC4F800A0C4F804B01598A06116989A
:100DF000A083A878401E0A99884202DAA878401E8B
:100E000000E00A9820724FF0000839E008F1010074
:100E1000C0B2019006A80290012003900398042319
:100E200000902846DDE9011206F0A6FA074600BF49
:100E30003FB11EB1284606F06FF930606FF00B002D
:100E4000C8E70698C0F307400590069880B2049062
:100E500041462046DDE9043200F032F88146B9F11E
:100E6000000F09D01EB1284606F056F9306009F18E
:100E70000C0008B14846ADE708F1010000F0FF089A
:100E8000207A4045C2DC24620B4961620B49A162B1
:100E9000284604F1200108B9052201E08160002202
:100EA00017463FB11EB1284606F036F930606FF0A4
:100EB0000B008FE700208DE7E9730008C978000870
:100EC0002DE9FF4705460E46174698464FF0000AA3
:100ED00015B1287AB04204DC4FF0FF3004B0BDE811
:100EE000F087B8F1000F1CD0DFB1002016E0696870
:100EF00001EB0014D4E901132268E468CDE902345F
:100F0000CDE90021864207D0029929B19DF8001051
:100F1000B94201D16FF00B0A411CC8B2297A814253
:100F2000E5DCBAF1000F30D1686800EB06142770D9
:100F30004FF47A7008FB00F0A060FF20607000BFE3
:100F40000020E06000BF207838B1A06828B1207888
:100F500000F5E0690120A07004E04FF000090020D6
:100F6000A060A0700A49686800EB06100022CDE975
:100F700000200291AA8B324491B240F2FF734A469C
:100F8000A869FFF7FBFC824600BF5046A6E70000B9
:100F90008F0D00082DE9F84F05460F4690464FF09B
:100FA0000109CA46002F4DD0686900284AD00026A2
:100FB00044E0C346686800EB0614A07800B93BE043
:100FC000E068C0B1607868B9A078022807D10096BF
:100FD00048F230131C220121286802F076FC01201F
:100FE000A07004E00220A07000206060834600BF73
:100FF0000020E06000BFA078022812D16068584449
:101000006060D4E9010188420BD3009648F23013A6
:101010001B220121286802F058FCFF206070032089
:10102000A070A078022801D04FF000096078052850
:1010300001D04FF0000A00BF701CC6B2287AB0423F
:10104000B7DC19E00FB96869B0B100210EE06A6839
:1010500002EB0110FF22427000BF0022C26000BFFD
:1010600082780AB101228270481CC1B2287A884273
:10107000EDDC4FF00009CA46E86890B9B9F1000FFD
:101080000FD00020009000231B221946286802F090
:101090001CFC0020009000231C221946286802F046
:1010A00014FCC5F80C90C5F810A06F61BDE8F88F6E
:1010B0000146002209B9501E7047002008604860B0
:1010C00088601046F8E72DE9F04F0D461446994622
:1010D000DDE90BC8DDE90967002100228B460368C2
:1010E0002B440360C7E090F809A00AF0010A8AF0D7
:1010F00001034FF0010BD0F800A0AAF5404AAAF571
:10110000547AC0F800A090F804A00AF1010A0AF08D
:10111000FF0A80F804A0BAF1030F73DD4FF0000A54
:1011200080F804A05246514690F809A00AF0020A3D
:10113000BAF1000F02D141F0020101E042F00202D7
:1011400090F805A00AF1010A0AF0FF0A80F805A04C
:10115000BAF1010F06D0BAF1020F06D0BAF1060FAC
:101160000BD105E041F0040108E042F0040205E083
:101170004FF0000A80F805A000E000BF00BF90F823
:1011800006A00AF1010A0AF0FF0A80F806A0BAF1E7
:10119000090F13D2DFE80AF0120509060A1212122B
:1011A0000D0000BF41F0080109E000BF42F0080255
:1011B00005E04FF0000A80F806A000E000BF00BF85
:1011C00090F807A00AF1010A0AF0FF0A80F807A0C8
:1011D000BAF10B0F17D2DFE80AF016060B070C085E
:1011E0000D161616100000BF00BF41F010010BE0F5
:1011F00000BF00BF42F0100206E04FF0000A80F886
:1012000007A001E028E000BF00BF90F808A00AF1A5
:10121000010A0AF0FF0A80F808A0BAF10D0F19D2EE
:10122000DFE80AF018070D080E090F0A1018181841
:10123000130000BF00BF00BF41F020010BE000BF62
:1012400000BF00BF42F0200205E04FF0000A80F826
:1012500008A000E000BF07E090F809A00AF07E01B6
:1012600090F80AA00AF07E0213B141F0010101E0FA
:1012700042F0010200BF4CF2503A03685345BFF4FC
:1012800032AFBBF1000F51D00EB1012324E014B9ED
:1012900001F0010320E0BCF1000F02D001F02003B7
:1012A0001AE0B8F1000F02D001F0100314E0DDF8ED
:1012B00034E0BEF1000F02D001F008030CE017B1DA
:1012C00001F0040308E0DDF838E0BEF1000F02D0C1
:1012D00001F0020300E00023B9F1000F02D002F098
:1012E000010A18E0DDF83CE0BEF1000F02D002F088
:1012F000100A10E0042C02D102F0040A0BE07F2C4B
:1013000002D102F0020A06E0052C02D14FF0010AD8
:1013100001E04FF0000A0BB141F08001BAF1000F7B
:1013200001D042F080024172827200BFBDE8F08FAE
:101330002DE9F04186B00446884615461E4604B1A4
:1013400004E04FF0FF3006B0BDE8F08140F2E471F8
:101350000A224B1C6068CDE90230CDE9042111213D
:101360006068CDE900012B4632464146206C00F012
:1013700003F807463846E6E72DE9FF5F044688464E
:1013800016461D46DDE90FABDDF83890119F0020B1
:10139000039074B16EB165B1B9F1000F09D047B1D6
:1013A0002878012802DB28787F2807DD2878FF28A5
:1013B00004D04FF0FF3004B0BDE8F09F7421204608
:1013C000FEF756FF98E80F0084E80F000020207415
:1013D00084F83400A663E563287884F8400000BFF1
:1013E0000020606400BF1048002140F2FF735A469D
:1013F000CDE90014029051464846FFF7BFFA03902A
:10140000E766002008210346CDE900103846DDE9F3
:101410001212FFF722FB2067206F10B94FF0FF3048
:1014200003900398C7E700002D1600082DE9FE4F32
:10143000044600200290606C002872D000200190C9
:101440000021206F40F8051F416094F848005128A2
:1014500068D00EDC152866D006DC042811D01128CF
:1014600018D0132872D12BE0172871D04328F9D156
:101470000AE05A38052869D2DFE800F089949FAA6B
:10148000B50001200290C0E04420216F4871012086
:101490000190BAE04A20075D0026012F01DB7F2F73
:1014A00001DDFF2F02D1E06B077000E0012694F808
:1014B0004800216F4871206F867101200190A4E0DF
:1014C000606D00B9A1E094F84AA094F84B80002622
:1014D000B146BAF1000F17D1B8F1050F14D0B8F129
:1014E000090F11DC504830F818B05946D4E91520DE
:1014F00090470090009818B1A06BA0F800B002E0EF
:10150000FF264FF0010900E0012694F84800216F02
:101510004871206F8671206F80F80790012001903C
:1015200073E07EE06AE0606D00B96EE0E06D60B18E
:101530004B20005D4FEA002B4A20005D40EA0B0B78
:101540005946D4E91720904700BF5EE05CE0FFE712
:101550000026606E08B9012610E0D4F838C0BCF847
:101560000020D4F83CC09CF80010D4E9193098470A
:101570008346BBF1000F00D1022600BF94F848005B
:10158000216F4871206F8671012001903DE094F831
:101590004800216F48712568206FC0F8065001206F
:1015A000019032E094F84800216F48716568206F1F
:1015B000C0F806500120019027E094F84800216F00
:1015C0004871A568206FC0F80650012001901CE00A
:1015D00094F84800216F4871E568206FC0F8065004
:1015E0000120019011E094F84800216F487194F8AF
:1015F0004010206F81710120019006E04F20216F83
:1016000048710120019000E000BF00BF019818B1AF
:10161000D4E91B01FFF7E6F900BF0020606400BFBA
:1016200000BF0298BDE8FE8F68A700082DE9FC4FB7
:1016300084460D466046297901910199082972D1A5
:10164000416C0029FBD100230093691D0A78042A0C
:1016500020D14B7813B1012B19D115E0047C012C5A
:101660000BD190F84040FF2C07D1C46B2478FF2C9D
:1016700003D080F8482001240094002404744461BD
:101680008461C461046203E00124047400E000BFCB
:1016900000BF94E0037C002B7DD1422A12D004DCF1
:1016A000402A07D0412A7ED108E0432A0ED0512A91
:1016B00079D124E0D1F80130436175E0D1F80130EF
:1016C000836171E0D1F80130C3616DE0D1F8013080
:1016D000036246688469A64210D18668C469A6423E
:1016E0000CD1C668046AA64208D146690468B442AF
:1016F00004D10124047480F84820009454E0C36BA2
:101700001B78FF2B4ED190F84030FF2B4AD14B79FC
:101710008C79CE791F2B01DD802B03D1032C01DCCA
:10172000032E01DD40E051E0D1F8018047464FF043
:101730000009802B0ED14FF001094FF0000A80F80C
:1017400034A0C0F824A0C0F828A0C0F82CA0C0F88D
:1017500030A01AE090F834A0A24516D14FF0FF3B1C
:101760000BFA03FA50F824B00BEA0A0B07EA0A0E48
:10177000F34509D14FF0010980F8346023B9A6423E
:1017800002DACB4680F810B000BFB9F1000F08D0E4
:1017900080F8482001E008E005E04FF0010ACDF8AC
:1017A00000A000BF00E000BF09E00B68C0F84930AE
:1017B0004B68C0F84D3080F8482001230093009B0F
:1017C0001BB100BF0123436400BF00BFBDE8FC8F15
:1017D000014609B90020704791F90000FBE70000BD
:1017E0002DE9FF4F85B004460D469046DDF868A010
:1017F000DDF85C901D9F002004905CB155B1B8F1FC
:10180000000F07D0149828B1BAF1000F02D0B9F137
:10181000000F04D14FF0FF3009B0BDE8F08F342144
:101820002046FEF725FD0020207060700898E070CB
:101830001298A080C4F820804FF47A71139848431E
:10184000E0604FF0000B03A8019001200290029885
:101850000223009059462846019A05F08DFD064660
:1018600000BF3EB11FB1284605F05CFC38606FF048
:101870000B00D1E7BDF80C004FF47A714843A0602B
:101880002461294961612949A161284604F11001B7
:1018900008B9052201E08160002216463EB11FB161
:1018A000284605F03FFC38606FF00B00B4E7D4E940
:1018B0000210884201D9A068E0601D48002140F272
:1018C000FF73CDE90014029014A807C8FFF756F87B
:1018D0000490049808B104989EE7C4F8249000206E
:1018E00002210346CDE900104846DDE91812FFF752
:1018F000B4F8A062A06A10B94FF0FF308CE7C4F8CA
:101900002CA0002001210346CDE900105046DDE95E
:101910001B12FFF7A2F82063206B10B94FF0FF30C5
:101920007AE7049878E70000E97300083D79000839
:10193000791A00082DE9F05F04460E46174694F91F
:1019400000504FF0000A0DB9012000E0002083464E
:10195000E068B84202D9E068C01B00E00020E06007
:10196000BBF1000F07D1A068B8B1E06818B194F9D5
:101970000100A84211D0216B4D71D4E90B01FFF792
:1019800031F845B9A08800F4807008B1052000E066
:101990007F20054601E0A068E0606570A078E8B1AE
:1019A000A07880280ED004DC012807D0022811D1AD
:1019B00006E0812808D082280CD108E005250AE03D
:1019C000042508E07F2506E04FF0020A03E04FF00F
:1019D000010A00E000BF00BF0020A070A08800F452
:1019E000805080B11221206A02F07CF848B91B2196
:1019F000206A02F077F820B91C21206A02F072F800
:101A000008B1012000E000208046A08800F40050CA
:101A100060B1206A08B1C16809B9002101E0C1685C
:101A20000978A088014009B1012000E0002081462A
:101A3000052D0ED1B8F1000F02D1B9F1000F08D079
:101A4000A08800F4804008B1042000E07F20054613
:101A50000CE0A08800F4004040B17F2D06D1B8F121
:101A6000000F03D1B9F1000F00D10525257006B193
:101A700035705046BDE8F09FF0B50D794A1D1678D7
:101A800053780446022D04D113B1E7789F4200D168
:101A9000A670F0BD70B504460E46154614B94FF059
:101AA000FF3070BD15B1E078A84200D1A670A06AE1
:101AB0004671A06A8571D4E90901FEF793FFF0E74A
:101AC0002DE9F04102460C46104601462679671D75
:101AD00090F860318D689DB30D7BB54231DC91F893
:101AE0000CC0B44503D1012B03D10B2301E003B992
:101AF0000D230025D0F868C1BCF1000F0CD0D0F840
:101B000064C1BCF1000F07D0D0F864C1DCF80CC090
:101B1000BCF1000F00D0012500F5A87C0CEBC50C32
:101B2000D7F80080CCF80080D7F80480CCF8048087
:101B300000BF4FF0010800F5A47C4CF8258000BFE1
:101B400001E003B90C2380F86031BDE8F0810000AA
:101B50002DE9FF4F87B005468B46199F2C4655B19E
:101B6000BBF1000F07D0099828B1159818B1169845
:101B700008B1179820B94FF0FF300BB0BDE8F08FD7
:101B80004FF4BA712846FEF773FB09982060179846
:101B900060600020069006A80123CDE90070594638
:101BA0002046169A06F020FA8046B8F1000F01D0C0
:101BB0004046E2E700200590012305AA1946159842
:101BC00005F099FB8146B9F1000F0AD037B115989D
:101BD00005F0AEFA012101EB002038606FF00B0038
:101BE000CBE70121059801EBE07A0598C0F30A06DE
:101BF000BAF1000F08D0607B00B12EB94FF0000A97
:101C0000069808B901200690069868B10698012840
:101C100001D0069800E0059800904FF402431A2284
:101C20000121206801F051FEBAF1000F00D1002619
:101C300036B14FF6807114980840B04200D1149E1E
:101C40003748002140F2FF733246CDE9001502907B
:101C5000DDE91701FEF792FE8046B8F1000F01D0D2
:101C600040468AE7C4F808A0FE200490012304AA95
:101C70000221159805F066FB8146B9F1000F0AD0E4
:101C800037B1159805F054FA022101EB00203860B5
:101C90006FF00B0071E70A98C5F864019DF8100019
:101CA000F02801DC012000E00020C5F868010020D8
:101CB0000390012303AA0521159805F00FFBBDF839
:101CC0000C004FF47A714843C5F86C01012004F50B
:101CD0008C742060C4F804B0189820811498608136
:101CE000A6812561A4F58C740E494FF496700151BC
:101CF0000D49001D0151C4F838510C494FF49E7034
:101D000001510B49001D015104F59471159805F01E
:101D1000BAF904F59C71169805F0B5F900202CE786
:101D2000C11A00083D750008B57B0008E97300087A
:101D3000157F00082DE9FF4F87B0044699462546D8
:101D4000A86800287ED0B9F1000FFBD0149818B90C
:101D5000D4F86801002875D194F860010A2820DDC4
:101D600094F860010B2801D0012000E00020074614
:101D700094F860010C2802D148F2102001E048F2EA
:101D800020208046287B009043460422394628685C
:101D900001F09BFD0FB1012000E0002084F86001FC
:101DA00000BF0026D4F8680138B1D4F8640120B12E
:101DB000D4F86401C06800B901260020069048E00C
:101DC0000120069004F5A87000EBC60A00BF0021B0
:101DD000083840F8261000BF8B4636E0CBEBCB012D
:101DE00005F1100000EB810707F10C000590059844
:101DF00090F80080B86804900498082801D9082059
:101E00000490049840450AD900200290039042466D
:101E1000514602A8FEF705FA02A8019001E0CDF8AC
:101E200004A00021059801606B46D7F818C0384619
:101E3000049A0199E0470598C0F80080C2440BF16C
:101E4000010000E043E000F0FF0B687B5845C5DC73
:101E500000BF04F5A47050F826000028B0D1D4F8D3
:101E60006C0198B3069890B1D4F86C11D4F8700155
:101E7000884208D9D4F8700100900023172219462F
:101E8000286801F022FD0120C4F870011EE0D4F89A
:101E90007001D8B1D4F86C11D4F87001884215D211
:101EA000D4F8701108980844C4F87001D4F86C1183
:101EB000D4F87001884209D9D4F87001009048F232
:101EC000502317220121286801F0FFFC12E0A868C6
:101ED00010B1B9F1000F0DD100BF0020C4F84801C6
:101EE00000BF00BF00214FF4A670015100BF0020C9
:101EF000C4F870010BB0BDE8F08F2DE9F041064643
:101F00000D4634462F7905F10508082F12D198F8AF
:101F10000000802802D1002020750BE0A06B48B99A
:101F20003A46414604F13C00FEF77BF900BF012030
:101F3000A06300BFBDE8F0812DE9F05F04468A464A
:101F40009046DDE90A6B01274FF000090CB1A0694A
:101F500020B9DFF830926FF0010760E094F82C00B0
:101F600008B900275BE0E06E00284DD094F87000BF
:101F7000802807D1606F8146002184F82C106FF013
:101F800009073BE0B8F1000F08D00EB1306800E05F
:101F90007C488146012084F82C002FE094F82C0026
:101FA000122824D194F8700060281AD17222125D90
:101FB00010027122125D10437322115DA28B8242C6
:101FC00002D1A27F8A4207D0DFF8B891A9F10409B3
:101FD000012284F82C2010E0002284F82C20002715
:101FE00004E0DFF8A491012084F82C0005E0DFF87C
:101FF0009891012084F82C0000BF00BF002060638E
:10200000824600BFE0660AE0B8F1000F07D00EB1CB
:10201000306800E05B488146012084F82C00012FE5
:1020200015D1D4E90C10884202D2606B5044606331
:10203000D4E90C10884206D3DFF84C91A9F10109CC
:10204000012084F82C002069006900B10427012FC9
:102050006BD10021206940F8051F416094F82C00E5
:1020600011285FD1202021694871217F2069817169
:10207000A08B01122069C171A17F2069017200BF8C
:10208000D4E91012881A002801DAE16B084400BF75
:102090000546606A08B9042D04D9606A78B3606A9D
:1020A00004282DD82069407940F002002169487148
:1020B00025B1606A50B1606AA84207D0002084F858
:1020C0002C00DFF8C8906FF008072CE0606A48B178
:1020D00020694079C5F10401012242EA81010843E7
:1020E00021694871206900F1090100232A4604F1A1
:1020F000380001F067FCA5620120206208E0FFE7DC
:10210000002084F82C00DFF888906FF008070AE0C0
:10211000002060632169A068FEF764FC122084F847
:102120002C0000E000BF00BF00BF012F1ED194F8BB
:102130002C0001281AD14D46802021694871217F49
:1021400020698171A08B01122069C171A17F206972
:1021500001722069C0F809502169A068FEF742FCAD
:10216000002084F82C006FF0080700BFBBF1000FBF
:1021700002D0A06ACBF800000EB1C6F80090384635
:10218000BDE8F09F470004060100040510000706A3
:10219000000001062DE9F04104460D4616460027D1
:1021A00044B13DB100233246294604F1380001F024
:1021B0003CFC07463846BDE8F0812DE9F04704466F
:1021C0000D4616461F46DDE908890CB1A06918B90D
:1021D0006FF00100BDE8F087A583A6776762002055
:1021E000A06220624FF47A7008FB00F020630020A8
:1021F000606304F1380001F013FC112084F82C0016
:1022000000BF0020E06600BF00BFE3E72DE9F84F04
:1022100004468A4617461D4601264FF000080CB1B9
:10222000A06920B9DFF804826FF0010685E094F818
:102230002C0008B9002680E0E06E002874D094F8E5
:102240007000802807D1606F8046002184F82C1030
:102250006FF0090661E047B10DB1286800E07348EE
:102260008046012084F82C0057E094F82C002228A6
:102270004CD194F8700000F0F000402840D172205A
:10228000005D4FEA002B7120005D40EA0B0B7320CC
:10229000005D0090A08B584503D1A17F009881423A
:1022A00007D0DFF88881A8F10408012084F82C0009
:1022B00032E094F8700000F00200D8B14FF0040949
:1022C00094F8700000F0010028B194F87000C0F399
:1022D0008100A9EB000900234A4604F1740104F1CE
:1022E000380001F0A2FBC4F82890002084F82C00EC
:1022F000002604E0DFF83881012084F82C0004E097
:10230000DFF83081012084F82C0005E0DFF824811B
:10231000012084F82C0000BF00BF002060638246CB
:1023200000BFE06609E0FFE73FB10DB1286800E0BB
:102330003E488046012084F82C00012E20D1D4E9AB
:102340000C10884202D2606B50446063D4E90C10D8
:10235000884211D394F82C00232803D094F82C0041
:10236000652802D14FF0006803E0DFF8C880A8F1CB
:102370000108012084F82C002069006900B10426BE
:10238000012E21D10021206940F8051F416094F8F9
:102390002C00212816D1402021694871217F206915
:1023A0008171A08B01122069C171A17F2069017226
:1023B000002060632169A068FEF714FB222084F8E6
:1023C0002C0000E000BF00BF012E1ED194F82C00AD
:1023D00001281AD1C146802021694871217F2069D6
:1023E0008171A08B01122069C171A17F20690172E6
:1023F0002069C0F809902169A068FEF7F3FA00206F
:1024000084F82C006FF0080600BF0A9810B1616ACA
:102410000A9801600B9810B1A16A0B9801600DB188
:10242000C5F800803046BDE8F88F0000470004067C
:1024300000000106010004052DE9F04104460D46A7
:102440001646002744B13DB100233246294604F127
:10245000380001F0B7FA07463846BDE8F0812DE9AB
:10246000F04104460D4616461F46DDF818800CB1B3
:10247000A06918B96FF00100BDE8F081A583A677C7
:1024800000206062A062206204F1380001F0C8FA06
:102490004FF47A707843206300206063212084F831
:1024A0002C0000BF0020E06600BF00BFE4E72DE97C
:1024B000F04F87B004461546DDF850A0DDF848908F
:1024C000DDF8408094B18DB1284604F037FEB0F5B8
:1024D000945F0BDB284604F031FEB0F5985F05DA17
:1024E000B8F1000F02D0B9F1000F04D14FF0FF3066
:1024F00007B0BDE8F08FC4F800801198A080C4F840
:1025000008901398A081212204F1480104F13800B9
:1025100001F04CFA012306AA0021284604F01FFF0F
:102520008346012304AA1946284604F0F1FE0290CE
:10253000012303AA0221284604F0EAFE01900123A8
:1025400005AA0321284604F00AFF0646BBF1000F46
:1025500008D19DF81800032804D1029810B90198F9
:1025600000B956B1BAF1000F04D0284604F0E6FDD8
:10257000CAF800006FF00B00BAE79DF8143020464F
:10258000DDE9032100F020F8074617B14FF0FF30D6
:10259000AEE70020ACE730B5024610460C794B1D83
:1025A00090F82C5075B1082C0CD1C56E15B11D7862
:1025B000802D07D11D6805675D68456700BF01254F
:1025C000C56600BF30BD00002DE9FE4F04460D4634
:1025D00016461F461CB96FF00100BDE8FE8F0020B3
:1025E00084F82C0000BFE06600BF277505F00040AE
:1025F00010B9C5F30A0000E00020804606F0004054
:1026000010B9C6F30A0000E000208146B8F1000FBF
:1026100005D0B9F1000F02D00120A06104E04FF015
:102620000008C1460020A06111480021CDE9001436
:102630000290A18840F2FF734A462068FEF79EF997
:10264000824600200821CDE90010A18900234246DE
:10265000A068FEF702FA2061BAF1000F01D12069EB
:1026600018B90020A061801EB7E70020B5E7000080
:10267000972500082DE9F04F8BB004468B4616468F
:102680001D46DDF8648034B1BBF1000F03D015980E
:1026900008B1179820B94FF0FF300BB0BDE8F08FAC
:1026A000C4F808B025734FF47A71149848436067F2
:1026B000002020756EB9012D01DB7F2D02DD4FF06A
:1026C000FF30EAE705F5C06905F5B06A0120206131
:1026D0008CE0304608B1018800E000210F46B7F5D4
:1026E000905F19D1012D01DB7F2D02DD4FF0FF300E
:1026F000D3E705F5C06905F5B06A01202061012323
:102700004A461946304604F06AFF01235246022128
:10271000304604F064FF68E0B7F5905F62DDB7F51E
:10272000945F5FDA002001900AA8029001200390D4
:102730000398012300903046DDE9011204F01CFEED
:102740000790012309AA1946304604F0EEFD0690D1
:10275000012308AA0221304604F0E7FD05900798FE
:1027600058B99DF82800022803D09DF828000328B6
:1027700003D1069808B9059838B1B8F1000F01D017
:10278000C8F800706FF00B0087E7099800F0004070
:1027900018B90998C0F30A0000E0002081460898A3
:1027A00000F0004018B90898C0F30A0000E00020CB
:1027B000824664651A49A1651A49E165304604F10B
:1027C000540108B9052201E08160002204920498B6
:1027D00038B1B8F1000F01D0C8F800706FF00B00ED
:1027E0005BE702E04FF0FF3057E700BF00BF00207B
:1027F000A06300BF159860641698A4F84800189864
:10280000A4F84A000020E064206517982060CDE914
:10281000009A2046189BDDE9151200F005F83CE708
:10282000E9730008197A00082DE9FF4F83B00446C8
:102830000F469046DDE91056E06CA84206D1206DA7
:10284000B04203D1002007B0BDE8F08FE5642665F3
:1028500005F0004008B9A8B200E00020814606F06B
:10286000004008B9B0B200E000208246B9F1000F84
:1028700005D0BAF1000F02D00120206104E04FF032
:102880000009CA46002020610F48002140F2FF7372
:102890004A46CDE90014029041463846FEF76EF8EC
:1028A000834600200821CDE900100023524620680D
:1028B0000699FEF7D2F86060606818B94FF0FF3BE8
:1028C000002020615846BEE7FB1E00082DE9F04FAE
:1028D00085B004468946924624B96FF0010005B0E0
:1028E000BDE8F08F012700200490A06B08B1012003
:1028F00000E000200390206928B1207D18B90398DA
:1029000008B90027C7E1B9F1000F01D0206930B93B
:102910000020207500BFA06300BF0027BBE1039823
:102920000028EFD0207D002875D1002594F83C00C8
:1029300000F0F000202802D1112020750BE094F85F
:102940003C00402803D101252120207503E0F848F0
:102950000490012020750498A8BB3D20015D3E2015
:10296000005D41EA0020A0863F20005D84F836002B
:10297000A18EA06804F095FB804694F836100023E1
:1029800004F1180204F018FC064636B1304604F093
:1029900005FC04900120207521E02820005D00F056
:1029A000030020B9E34804900120207517E05DB1D1
:1029B0002820005D00F0010030B9DE48401C049082
:1029C000012020750BE00BE04DB92820005D00F0E0
:1029D000020020B9D748801C04900120207500BF58
:1029E0001DB3049808BB0020C4F8A000C4F8A400DC
:1029F000A06620670023072204A9204607F0FAFA00
:102A000098B1206F90B1206A6066606E20B9D4F8EA
:102A1000A000606613E013E0D4F8A010606E884256
:102A20000DD0C54804900120207508E02820005DE5
:102A300000F0800008B9206A00E00020606600BF56
:102A4000207D00287AD0207D0128FBD0207D112810
:102A500006D0132873D0212872D0232871D1F3E037
:102A600094F83C0000F00200002871D0256A04268A
:102A700094F83C0000F0010028B194F83C00C0F349
:102A80008100361A03E015B1042D00D22E46002035
:102A900001900290324604F1400101A8FDF7C1FB0C
:102AA0002820005D00F0800058B10DB1AE4208D280
:102AB000A81B012801D1012100E002210E44266259
:102AC0000EE00DB926620BE0AE4209D0AE4201D94C
:102AD0009A4801E09948401C049001202075D3E0F9
:102AE0000020009004F1180004F06EFC8046B8F15C
:102AF000000F07D000BF00BFEFF3108021684863CC
:102B000072B600BF6B46324601A904F11800D4F832
:102B100030C0E0478346B8F1000F05D02168486B0C
:102B200080F3108800BF00BFBBF1000F0BD05846E8
:102B300004F034FB049001202075A5E0A5E02EE010
:102B40007FE09CE004E0122020750120206725E052
:102B500094F83C0000F00100D0B1206A216C61665D
:102B6000A8B1626E824204D9744A0492012222758D
:102B70008AE0626E82420AD22822125D02F080024E
:102B80002AB96E4A521C0492012222757CE001E0AF
:102B900000206066122020750020206774E094F801
:102BA0003C0000F0E00098BB94F83C0000F001000D
:102BB000206794F83C0000F0100694F86C00B042D6
:102BC00004D05F480490012020755DE094F83C003B
:102BD000C0F34200C0F1070504F17C01D4F8A02045
:102BE00050182A463F39FDF71CFBD4F8A0002844B2
:102BF000C4F8A000A06E2844A066206A48B1A16E67
:102C0000206A814205D94D480490012020753BE09F
:102C100012E0206F28B9D4F8A000C0F120000928E4
:102C200007D200231A4604A9204607F053FC00B936
:102C30002AE01420207503E03D480490012020750F
:102C400022E0222020751FE094F83C0000F0EF0005
:102C500060280FD194F83C1001F0100094F86C102B
:102C6000814204D036490491012121750CE02421D0
:102C7000217503E02E4804900120207504E02C48C3
:102C800004900120207500BF00BF0020A06782468D
:102C900000BFA06300BF012F13D1D4E91D108842EB
:102CA00002D2A06F5044A067D4E91D10884204D31B
:102CB0001F48401E0490012020756068006900B123
:102CC0000427012F74D10021606840F8051F41607E
:102CD000207D122806D0142834D022284FD0242852
:102CE00067D18CE060206168487194F834106068A6
:102CF0008171A08E01126068C17194F8361060680D
:102D000001720020A067D4E90001FDF76BFE206F7F
:102D100018B100202075002709E0002084F86C001D
:102D2000A066C4F8A000C4F8A40013202075C5E074
:102D30000100040500000106470004061200070612
:102D40000000030594F86C0040F0200061684871B1
:102D500094F86C0008B9102000E0002084F86C00A2
:102D60000020A067D4E90001FDF73CFE206F18B1F8
:102D700000202075002701E0132020759EE0606E82
:102D8000C0B1606E042815D8606EC0F10400432104
:102D900041EA800061684871616801F1090004F14D
:102DA0007C01626EFDF73DFA00202075002715E0DA
:102DB00085E082E0606E40B1606E0146412263684A
:102DC0005A716268C2F8091002E0402061684871D7
:102DD000002084F86C00A0672320207594F834103C
:102DE00060688171A08E01126068C17194F836101C
:102DF00060680172D4E90001FDF7F4FD5EE0002394
:102E0000072204A9204607F0F5F800B956E094F827
:102E10006C006168487194F86C0008B9102000E0FB
:102E2000002004F86C0FD4E90D016C3C451A072D05
:102E300002D3206F70B10DD160684079C5F10701F0
:102E4000012202EB410108436168487100202075AE
:102E5000002704E00020A06723202075072504F147
:102E60007C02D4F8A43099186268901D2A46FDF7B8
:102E7000D8F9D4F8A4002844C4F8A400A06E2844CB
:102E8000A066606EA0B1D4E91910884204D91D482B
:102E900004900120207511E057B9D4E91910884237
:102EA00006D21848401C049001270120207505E037
:102EB000D4E90001FDF796FD00E000BF00BF012F3F
:102EC0001ED1207D01281BD1049D8020616848719E
:102ED00094F8341060688171A08E01126068C1712D
:102EE00094F83610606801726068C0F80950D4E93F
:102EF0000001FDF777FD002020756FF0090700BF86
:102F00003846ECE4120007062DE9F04F87B004467E
:102F1000894616469A46DDE9118B169D5CB1B9F1DA
:102F2000000F08D03EB1BAF1000F04D0149810B1D0
:102F3000BBF1000F04D14FF0FF3007B0BDE8F08FB8
:102F400060212046FDF794F9802006900020019032
:102F500006A80290012003900398042300903046B5
:102F6000DDE9011204F008FA074600BF3FB11DB1C8
:102F7000304604F0E9F828606FF00B00DDE7646389
:102F80005149A1635149E16304F13401304604F031
:102F900081F8002304221946504604F0DBF8E06172
:102FA000E06938B91DB1504604F0CEF828606FF0E2
:102FB0000B00C2E7002304221946109804F0CAF857
:102FC0002062109848B1206A38B91DB1109804F0F9
:102FD000BBF828606FF00B00AFE700200590B8F158
:102FE000000F2DD0019005A80290012003900398B6
:102FF000012300904046DDE9011204F0BDF90746C7
:103000003FB11DB1404604F09FF828606FF00B00FF
:1030100093E79DF81400012802D10220059005E0F5
:103020009DF81400F02801DDF02005902465264964
:1030300061652749A16504F15001404604F02AF872
:103040009DF814006074C4F800900698C0F3807076
:1030500060620698C0F30A00A4F84400C4F82CB0DB
:10306000139820861498A0641598A4F84C00194869
:103070000021CDE9001402900698C0F30A0240F244
:10308000FF7358461399FDF779FC0490049808B132
:10309000049852E700209DF8141009B1012100E0C6
:1030A0000021CDE900100698C0F30A020023DDE9F3
:1030B0001401FDF7D2FCA062A06A10B94FF0FF30F6
:1030C0003BE7002039E70000E97300080D770008AE
:1030D0008D7900080B3200082DE9F84F04460F46A1
:1030E00090469B464FF00009002F74D0A06900EB7A
:1030F000080AA069504501D2C4F818A0606830B130
:103100000020A0614FF0010900BF606000BFE069CE
:1031100010B1E069006800E000200646002E38D0BB
:10312000606AF8B1A069B04233D34FF00109254677
:10313000A87C401CC0B2A8742C46697C884201DD82
:103140000120A8740020A861E86808B9012000E007
:103150000020E860A87CA96A4871A96AA86CFDF7FC
:1031600041FC16E0207C012813D106EB5605B54240
:1031700000D2851EA069A8420AD9A06900904FF428
:10318000014318220121206800F09FFB02202074D7
:1031900000BF206A70B1206A006858B1216AA06936
:1031A0000968884206D9606908B94FF00209012010
:1031B000606101E000206061207A50B1207A0090C7
:1031C00048F2402319220121206800F07EFB0020F4
:1031D000207207E0FFE700BF0020606000BF2072A0
:1031E000A074A061B9F1010F0CD1207C022807D195
:1031F00000200090002318221946206800F065FB8B
:10320000012020744846BDE8F88F70B502460B4691
:10321000104619790024457C35B909B901240DE01F
:1032200041F04005057209E0012904D15D1D2E78A9
:103230008674012402E041F0800505724CB1C56836
:103240000DB9012500E00025C56000BF01254560DE
:1032500000BF70BD2DE9FF4F85B004460D461746EF
:10326000DDF848800CB105B127B94FF0FF3009B047
:10327000BDE8F08F2C212046FCF7FAFF4FF0000A42
:103280000DF1100B01200390039804235A46514678
:103290000090284604F070F8064600BF66B1B8F109
:1032A000000F06D0284608B1018800E00021C8F8C8
:1032B00000106FF00B00DAE7E46118492162184949
:1032C0006162284604F11C0100B901E0816000BF81
:1032D0000498C0F30A090498C00F20610498C0F351
:1032E0008070606100BF0020A06100BF206990B1C4
:1032F0000C48002140F2FF734A46CDE900140290C9
:1033000038460899FDF73AFB8246BAF1000F01D022
:103310005046ACE700BF0020A9E70000E9730008B1
:103320002D780008C13300082DE9F84F04460E46F9
:1033300015460027EEB12069D8B1A069E8B1204652
:1033400000F0BDFB824604F10409022249466846AA
:10335000FCF767FFBDF8000083462AF07040A060CC
:10336000A4F80CB00020E081012700BFA06100BFDD
:1033700003E000BF0020A06100BF4FF00008CFB9FC
:10338000C5B1E18948194FF47A71B0FBF1F8B0FB8F
:10339000F1F201FB1201E181A1684144A160074AF9
:1033A000A168914205D3A168891AA160A189491C2D
:1033B000A18100BF3846BDE8F88F0000005C2605FB
:1033C00030B502460B794C1D062B07D125681560D8
:1033D000A588958000BF0125956100BF30BD000024
:1033E0002DE9FF4F89B005468A4693461B9F2C4620
:1033F0005DB1BAF1000F08D0BBF1000F05D01798EE
:1034000018B1189808B1199820B94FF0FF300DB0D5
:10341000BDE8F08F4FF4B6712846FCF729FFC4F8D9
:1034200000B0199860600020089008A80023CDE93A
:10343000007051462046189A04F0D6FD0790079870
:1034400008B10798E3E7FE200690012306AA0221AF
:10345000179803F077FF8046B8F1000F0AD037B114
:10346000179803F065FE022101EB002038606FF031
:103470000B00CCE79DF81800FE2805DA9DF818002F
:10348000F02801DDFE2006909DF8180085F84C011B
:103490000120C5F8500100200590012305AA194616
:1034A000179803F028FF8046B8F1000F0AD037B113
:1034B000179803F03DFE012101EB002038606FF00A
:1034C0000B00A4E70121059801EBE0790598C0F312
:1034D0000A06B9F1000F08D0607B00B12EB94FF099
:1034E0000009089808B901200890089868B1089860
:1034F000012801D0089800E0059800904FF402439D
:103500001A220121206800F0E0F9B9F1000F00D182
:10351000002636B14FF6807116980840B04200D1AF
:10352000169E95F84C01F02801DC012100E00021F5
:10353000207B00233246CDE90001DDE91901FDF7CA
:103540008CFAC5F84801D5F8480110B94FF0FF30A2
:103550005DE7E83444F8E09C0020049003900123E8
:1035600004AA0321179803F0B9FE012303AA052139
:10357000179803F0B3FEBDF8100064214843C5F866
:103580005C01BDF80C004FF47A714843C5F8600146
:10359000002085F85801012305F5AC720621179823
:1035A00003F0D0FE0C98C5F85401FF2085F85901AE
:1035B00000202063C4F834A01A98208716986087EA
:1035C000A6872564E83C0E494FF4967001510D49D9
:1035D000001D0151C4F838510B494FF49E70015140
:1035E0000A49001D015104F59471179803F04BFD31
:1035F00004F59C71189803F046FD002007E70000D1
:103600003D750008557D0008E9730008157F000826
:103610002DE9F04704460D4691461F46DDF820800F
:103620002646B068002870D0002FFCD094F84C01DA
:1036300018B194F84C01FE282DDBD4F8600180B15C
:10364000D4F86801A84203D9D4F86801401B00E00F
:103650000020C4F86801D4F8680110B90120C4F84A
:103660005001D4F85001B0B9002010E006F1F0028A
:1036700052F8201049B10A7806F588731B5C1A408D
:103680001AB90122C4F8502104E0411CC8B2717B70
:103690008142EBDC00BF94F84C01FE2816DBD4F825
:1036A0006401A84203D9D4F86401401B00E0002063
:1036B000C4F86401D4F8500100285CD0D4F8640147
:1036C000002858D1204600F058F854E0D4F85401AE
:1036D000B0B3B8F1000F4ED094F84C0130B9D4F823
:1036E000500168B3204600F048F844E094F85901CE
:1036F000FF2813D1D4F85401407C38B194F8580114
:1037000020B1FE2084F8590108E029E094F84C012A
:1037100000EBD0714910491C84F8591194F85901F3
:10372000FE280ED1D4F85401807C94F858118842B8
:1037300021D194F84C0184F85901204600F01DF87D
:1037400019E094F85901401EC0B284F8590190B9AB
:1037500094F84C0184F85901204600F00EF80AE074
:103760000120C4F850010020C4F86801C4F86401C5
:10377000FF2084F85901BDE8F0872DE9F04F87B0AC
:1037800004462546D4F84801401D069094F84C01A3
:1037900018B194F84C01FE2801DB012000E0002064
:1037A0000590002641E0C6EBC60105F1100000EBD4
:1037B00081094F4697F80C80D7F808A0BAF1080F96
:1037C00001D94FF0080AC24505D9002003900490A2
:1037D00003A8029001E0069802900020F86001AB77
:1037E0005246D9F814C038460299E047C7F80C8011
:1037F000C24504D9424603A90698FCF712FD05F11B
:10380000F00050F826B0BBF1000F09D0059838B190
:103810009BF8000005F58871895D08438BF800006E
:10382000069840440690701CC6B2687BB042BADC71
:10383000002004F5A474A060A06920626069E061C2
:103840002168A4F5A4746868FDF7CCF807B0BDE85A
:10385000F08F10B5044604B910BD6068FCF72BFE6C
:10386000E06806F053F8A06806F050F8606806F0CB
:103870004DF8206C06F04AF8E06B06F047F8A06BB4
:1038800006F044F8606B06F041F8206B06F03EF855
:10389000E06A06F03BF8A06A06F038F8606A06F0C5
:1038A00035F8E06906F032F8206A06F02FF8A069D2
:1038B00006F02CF8606906F029F8206906F026F871
:1038C000204606F023F800BFC6E72DE9F04F0C466E
:1038D000984608B9BDE8F08FD51002F0070C012713
:1038E00007FA0CF7FBB20A2D04DB052501234FF480
:1038F000C248099241190F7807EA03060CB126B1B4
:10390000E8E706B9E6E74FF0000848EA0269DDF8A3
:1039100024A000BF00BFEFF31087D0F814C0CCF88C
:10392000307072B600BF1CB10F781F430F7002E0F9
:103930000F789F430F70077F022F2EDB477F07F121
:10394000010B0BF0FF0C90F81CB0E34501DC4FF0CD
:10395000000C90F81EB0E34504D14FF0010B80F845
:103960001FB019E0D0F818B04BF83790D0F818B065
:103970000BEBC70BCBF804A080F81DC090F820E03B
:1039800090F81CB0ABF1010BDE4505DA90F820B0E1
:103990000BF1010B80F820B000BFD0F814C0DCF8A8
:1039A000307087F3108800BF00BF93E710B109B1F2
:1039B000022A00D270470023C36083600160426026
:1039C00000BFF7E7F0B5044615460BB100201860BC
:1039D00024B119B1D4E90270B84201D10020F0BD80
:1039E000E7682068C6192A4615E03078D4E902C78E
:1039F000674500D111E001F8010BE7687F1CE76023
:103A0000D4F804C0674503D10027E760266800E0CA
:103A1000761C521E00BF002AE7D100BFA81ADEE7BD
:103A200010B10021C16081607047F0B504461546B1
:103A30001E4614B1206800B109B90020F0BDA76886
:103A40002068C3192A4619E0A768781CE7688742EE
:103A500004D06768874202D1E76807B910E00F78A1
:103A60001F706768874203D10027A760236803E0BF
:103A7000A7687F1CA7605B1C491C521E002AE3D16B
:103A800000BFA81ADAE738B5044602222146684684
:103A9000FCF7C7FBBDF8000038BD38B5044604226A
:103AA00021466846FCF7BDFB009838BD38B5044692
:103AB000042221466846FCF7B4FB009838BD38B5AF
:103AC0000446042221466846FCF7ABFB009838BD4B
:103AD00038B50446012221466846FCF7A2FB9DF852
:103AE000000038BD30B50246CB1001F007050120BB
:103AF000A840C4B222B10A2B02DAD05C204008B13F
:103B0000012030BD0020FCE730B50246CB1001F0AB
:103B100007050120A840C4B222B10A2B02DAD05C0A
:103B2000204008B1012030BD0020FCE72DE9F0471E
:103B300081460F460024A046002500BF44210120F5
:103B4000FCF7A8FB041E01D0443500E0A0E03421BE
:103B50000120FCF79FFB206108B1343500E097E0BD
:103B6000082630210120FCF795FB606108B1303553
:103B700000E08DE010213046FCF78CFBA06118B10D
:103B8000102000FB065500E082E050210120FCF7E8
:103B900081FBE06108B1503500E079E01126022E8A
:103BA0000ADB08213046FCF775FB206218B10820BB
:103BB00000FB065500E06BE0A8210120FCF76AFB42
:103BC000606208B1A83500E062E078210120FCF7CE
:103BD00061FBA06208B1783500E059E02C2101209A
:103BE000FCF758FBE06208B12C3500E050E06021A2
:103BF0000120FCF74FFB206308B1603500E047E08F
:103C00004FF4BA710420FCF745FB606310B105F571
:103C1000BA6500E03CE04FF4B6710420FCF73AFBD3
:103C2000A06310B105F5B66500E031E00C2101207C
:103C3000FCF730FBE06308B10C3500E028E07421AC
:103C40000120FCF727FB206408B1743500E01FE079
:103C500038210120FCF71EFB606008B1383500E018
:103C600016E00C211220FCF715FBA06008B1D83536
:103C700000E00DE018210B20FCF70CFBE06010B118
:103C800005F5847500E003E001202060A04600BF38
:103C900000BFB8F1000F02D12046FFF7DAFD07B1EF
:103CA0003D604046BDE8F0872DE9F04F8DB00446F9
:103CB0001746984600200C902069FDF789FD0B906F
:103CC0009DF82C007F2803D09DF82C00052801D1F9
:103CD000012000E000200A906068FCF779FC206C6D
:103CE000FDF7A4FB08B101200C9025686068468AA6
:103CF0004FF00009206C08B9002100E0017C012987
:103D000000D18946E06908B1C16809B9002101E024
:103D1000C168097809B1012000E0002082460DB198
:103D200000200CE01B21E069FFF7EEFE20B91C210A
:103D3000E069FFF7E9FE08B1012000E000208346BA
:103D40000DB1002003E01821E069FFF7DDFE0990C6
:103D50000020CDE904BACDE90608002240F2033183
:103D60003140099809B1012300E00023C6F3800126
:103D7000CDE90132009103900DB1002101E09DF9E0
:103D80002C100A464B463946E06BFDF79CF920683B
:103D900018B10C980DB0BDE8F08F43463A46E06983
:103DA0000A99FCF721FF43463A460BA92069FDF723
:103DB000C1FD0C909DF82C007F2803D09DF82C00AD
:103DC000052801D1012000E000200A904FF0000AF0
:103DD0000FE0CAEBCA0202EB4202616A01EBC200C9
:103DE00043463A460A99FEF771FD0AF1010000F0D8
:103DF000FF0ABAF1010FECDB43463A4660690A99C3
:103E0000FDF7C8F83A46E06A0A99FFF78DFA0C9870
:103E1000C0E72DE9F84304460E4617469846206849
:103E200008B1BDE8F8832069FDF7D2FC052801D16F
:103E3000012000E00020814600250EE00096C5EB41
:103E4000451202EB4202616B01EB82004B46424697
:103E50003946FDF76FFF681C05B2042DEEDB00BF8D
:103E6000DFE72DE9F04704460E4617464FF00009FC
:103E7000206830BB00BF2069FDF7AAFC8046B8F17E
:103E80007F0F02D0B8F1050F01D1012000E0002022
:103E900082463B4632465146206BFFF71DF90546E8
:103EA000281E04D0012803D0022808D103E006E030
:103EB0004FF0010903E06068FCF778FA00BF00BF2B
:103EC00000BF4846BDE8F0872DE9F84304460E469A
:103ED00017469846206808B1BDE8F8832069FDF7C9
:103EE00077FC052801D1012000E000208146002553
:103EF0000CE000965B216943A26B02EB81004B460C
:103F000042463946FFF784FB681C05B2042DF0DBFE
:103F100000BFE1E713B50446042201A92046FCF7DF
:103F200080F904201CBD13B50446042201A92046D3
:103F3000FCF777F904201CBD70B502460C46FF253E
:103F4000FF2309E012F8010B80EA05010648405CF6
:103F500080EA03050548435C201EA4F10106B4B2C3
:103F6000F0D143EA052070BD54AE000854AF0008FC
:103F70000146022901D1024870470020FCE70000F9
:103F80007C050020704710B54FF4806000F044FFBE
:103F90004FF4805000F040FF4FF4004000F03CFF31
:103FA00010BD10B54FF4807000F036FF10BD72B632
:103FB00000BFFEE770B500F059F9044625462946D2
:103FC000064804F0B1FF0646B44205D200BF0348DC
:103FD000083804F09FFF00BF204670BD5814002031
:103FE0002DE9FF4F81B0884691469A464FF0400B2D
:103FF00071E000BF3D4804F08DFF064600BF06F0AB
:104000003F003B4901EB001404F10C0100BF00BF6D
:1040100051E8000F00F0806313B120F0006201E06E
:1040200040F0406241E80023002BF1D1074607F041
:10403000806000284DD107F5801000F470010091D8
:1040400087F0004000F0004528F000402843206041
:1040500029F00040284360602AF000402843A06017
:10406000DDE9001008434FF0805101EAD801084310
:104070004FF0005101EA990108434FF0804101EAF5
:104080005A01084340EA050704F10C003A4600BF14
:1040900000BF50E8001F01F0006CBCF1000F03D01E
:1040A00042F00061012304E021F0806C8CF00041BB
:1040B000002340E8001CBCF1000FEAD14BB100BF67
:1040C0000A48001D04F026FF00BF012005B0BDE82E
:1040D000F08FABF1010BBBF1000F8AD100BF034899
:1040E000083004F017FF00BF0020EFE74414002061
:1040F000C00F0020F0B506460C461546FF2C01D235
:10410000FF2D01D30020F0BD002200231AE0012082
:1041100098403040A0B1214610E002EBD1000B4F97
:10412000385C01F0070C012707FA0CF7384302EB63
:10413000D107DFF818C00CF80700491CA942ECD9D8
:104140005B1C2032042BE2D30120DCE7C0130020EB
:104150002DE9F04780460F461821324805F0A5FAB0
:1041600006463148006A3149884207D008462E4940
:104170000862084646800120C8610EE02A4840884F
:10418000B04205D02848468001202749C86104E094
:104190002548C069401C2449C8612348C0690128DA
:1041A0001FD181022248FCF763F880212148FCF7E7
:1041B0005FF8FE2200214046FFF79CFF0FB101206F
:1041C00000E00020184908700020487048608860AE
:1041D000C86000F051F81449486100208861086106
:1041E00013E000250BE0124800EB0514E06800F036
:1041F000806018B1E06820F04060E0606D1C402DE8
:10420000F1D300F039F808494861FFF7D3FE814641
:10421000054800234946C2690748FFF7E1FE01202F
:10422000BDE8F08754B00008401400206B27A5E1DA
:10423000C00F0020C013002000FF000310B5094884
:10424000007808B1012010BDFFF7B4FE044600233A
:104250001A4621460448FFF7C3FE012001490870B1
:1042600000BFF0E74014002001FF00030148406850
:1042700070470000001000E00748006840F08070C0
:10428000054908600548006840F0010003490860DE
:104290000348006870470000FCED00E0001000E0FB
:1042A0000C00002010B5024692F82030012B01D0FE
:1042B000022B06D110684069084314686061002031
:1042C00010BD506A40F4802050620120F8E7F0B53C
:1042D00004460D461E4694F8207020688368A8683E
:1042E00000B900E000BF012F01D0022F7CD103F004
:1042F000806030B903F0006018B903F080500028E6
:1043000073D0C3F30161022905D9606A40F400004B
:1043100060620120F0BD012088403060A86860B96B
:10432000B5F800C0E86840EA4C5C206800F5C07051
:1043300000EB0110C0F800C00FE0D5E901C040EA71
:10434000CC00D5F80CC040EA0C00D4F800C00CF545
:10435000C07C0CEB011CCCF80000D5F810C0206824
:1043600000F5C07000EB0110C0F804C0287D0128E2
:104370000ED1206800F5C07000EB0110406840F4D9
:10438000807C206800F5C07000EB0110C0F804C00C
:10439000D079000692F806C040EA0C4092F805C0B9
:1043A00040EA0C2C10794CEA000C206800F5C07033
:1043B00000EB0110C0F80CC0D078000692F802C0E3
:1043C00040EA0C4092F801C040EA0C2092F800C08C
:1043D00040EA0C00D4F800C00CF5C07C0CEB011CCA
:1043E000CCF80800206801E016E00FE000F5C0708E
:1043F00000EB0110006840F0010C206800F5C0706F
:1044000000EB0110C0F800C0002083E7606A40F4B0
:104410000010606201207DE7606A40F480206062E5
:10442000012077E7F0B504460A46216894F8205049
:10443000012D01D0022D7ED1424901F5007108689D
:1044400040F001000860086820F47C5008600868AB
:10445000566A40EA06200860107D00F01F06012021
:1044600000FA06F3C8699843C861A1F50071D069E4
:10447000C8B9D1F80C029843C1F80C02908880B2F8
:10448000968940EA064601F51070576940F8376092
:10449000108880B2168940EA064601F51070576907
:1044A00000EBC7004660D069012819D1D1F80C0291
:1044B0001843C1F80C02908880B2168840EA06467C
:1044C00001F51070576940F83760908980B21689FD
:1044D00040EA064601F51070576900EBC7004660D8
:1044E000906928B9D1F804029843C1F8040204E0A5
:1044F000D1F804021843C1F80402106928B9D1F8B0
:1045000014029843C1F8140204E0D1F814021843CD
:10451000C1F81402106A012804D1D1F81C02184312
:10452000C1F81C02D1F8000220F00100C1F800021D
:104530000020F0BDFFE7606A40F480206062012047
:10454000F7E7000000640040704770B5044694F837
:104550002050012D01D0022D7DD151B92068C068B5
:1045600000F0030080B9606A40F40010606201202E
:1045700070BD2068006900F0030028B9606A40F44B
:10458000001060620120F3E7206800F5D87000EBAE
:104590000110006800F004009060906840B9206845
:1045A00000F5D87000EB01100068400D106007E0C6
:1045B000206800F5D87000EB01100068C00850605A
:1045C000206800F5D87000EB0110006800F00200D0
:1045D000D060206800F5D87000EB0110406800F052
:1045E0000F001061206800F5D87000EB01104068E2
:1045F00000F47F40000A9061206800F5D87000EB5D
:1046000001104068000C5061206800F5D87000EB84
:10461000011080681870206800F5D87000EB011058
:10462000806800F47F40000A5870206800F5D87058
:1046300000EB0110806800F47F00000C9870206887
:1046400000F5D87000EB01108068000ED87020686B
:1046500000F5D87000E02FE000EB0110C068187181
:10466000206800F5D87000EB0110C06800F47F40AE
:10467000000A5871206800F5D87000EB0110C0687E
:1046800000F47F00000C9871206800F5D87000EBF2
:104690000110C068000ED87131B92068C06840F0C0
:1046A00020002668F06005E02068006940F02000E6
:1046B0002668306100205BE7606A40F48020606219
:1046C000012055E70146002091F82020012A01D061
:1046D000022A11D10B689B6803F0806303B1401C70
:1046E0000B689B6803F0006303B1401C0B689B6878
:1046F00003F0805303B1401C70472DE9F05F04467E
:104700000025206846692068D0F8049020688768F2
:104710002068D0F80CA02068D0F810B02068D0F83D
:10472000188006F00100002855D007F00100C0B144
:1047300001202168886007F0020018B1204600F0CF
:1047400091FA0EE007F0040010B145F4006508E0AE
:1047500007F0080010B145F4805502E0204600F053
:1047600080FA07F48070C8B14FF4807021688860C7
:1047700007F4007018B1204600F080FA0EE007F44C
:10478000806010B145F4005508E007F4006010B1F6
:1047900045F4804502E0204600F06EFA07F48030D0
:1047A000C8B14FF480302168886007F4003018B138
:1047B000204600F06FFA0EE007F4802010B145F4B7
:1047C000004508E007F4002010B145F4803502E010
:1047D000204600F05DFA06F0080038B10AF010003B
:1047E00020B145F4007510202168C86006F004006F
:1047F00040B10AF0080028B108202168C8602046AE
:1048000000F0B8F906F0020038B12068C06800F086
:10481000030010B1204600F0AEF906F0400038B1B8
:104820000BF0100020B145F480651020216808616C
:1048300006F0200040B10BF0080028B108202168E4
:104840000861204600F09FF906F0100038B120689A
:10485000006900F0030010B1204600F095F906F45D
:10486000003040B109F0100028B1102021684860E4
:10487000204600F091F906F4803040B109F00800BC
:1048800028B1082021684860204600F00DFA06F49F
:10489000004088B309F0040078B306F4807020B1BA
:1048A00008F0010008B145F0010506F4007020B1E0
:1048B00008F0020008B145F0020506F4806020B15E
:1048C00008F0040008B145F0040506F40060A0B14A
:1048D00008F0700088B108F07000402817D006DC9E
:1048E00010280BD020280CD0302819D10CE05028EB
:1048F00010D0602814D110E01DE019E045F0080543
:104900000FE045F010050CE045F0200509E045F00A
:10491000400506E045F0800503E045F4807500E0C1
:1049200000BF00BF2068806920F0700021688861A6
:104930000420216848602DB1606A284360622046E7
:10494000FFF702FEBDE8F09F70B504460CB90120E8
:1049500070BD94F8200010B9204600F0AFF8206830
:10496000006840F001002168086000F069FB05461E
:104970000DE000F065FB401B0A2808D9606A40F48E
:1049800000306062052084F820000120E0E7206804
:10499000406800F001000028EBD02068006820F09B
:1049A00002002168086000F04BFB05460DE000F0B6
:1049B00047FB401B0A2808D9606A40F40030606257
:1049C000052084F820000120C2E72068406800F03C
:1049D00002000028EBD1207E012806D12068006863
:1049E00040F080002168086005E02068006820F041
:1049F000800021680860607E012806D12068006878
:104A000040F040002168086005E02068006820F060
:104A1000400021680860A07E012806D12068006857
:104A200040F020002168086005E02068006820F060
:104A3000200021680860E07E012806D12068006817
:104A400020F010002168086005E02068006840F050
:104A5000100021680860207F012806D120680068C6
:104A600040F008002168086005E02068006820F038
:104A7000080021680860607F012806D1206800686E
:104A800040F004002168086005E02068006820F01C
:104A9000040021680860D4E9020108432169084341
:104AA000616908436168491E08432168C8610020A4
:104AB0006062012084F82000002049E710B586B02C
:104AC0000446142101A8FBF7D3FB2749206888423C
:104AD00048D100BF002000902448006840F00070DA
:104AE000224908600846006800F00070009000BF8E
:104AF00000BF00BF002000901C481038006840F044
:104B000002001A49103908600846006800F00200E7
:104B1000009000BF00BF4FF440700190022002904F
:104B200000200390032004900920059001A910485B
:104B300000F080F900221146132000F02BFB132017
:104B400000F018FB00221146142000F023FB142073
:104B500000F010FB00221146152000F01BFB152071
:104B600000F008FB06B010BD006400404038024071
:104B700000040240704710B504460022114620464A
:104B800005F0BEF910BD704710B5044600220121A2
:104B9000204605F0B5F910BD704770B5044694F88D
:104BA0002000012822D1022084F82000206800681B
:104BB00020F001002168086000F042FA05460DE08F
:104BC00000F03EFA401B0A2808D9606A40F4003021
:104BD0006062052084F82000012070BD20684068D4
:104BE00000F001000028EBD16062F6E7606A40F453
:104BF000002060620120F0E770B5044694F82000C0
:104C0000022828D12068006840F00100216808606F
:104C100000F016FA05460DE000F012FA401B0A28D3
:104C200008D9606A40F400306062052084F82000F2
:104C3000012070BD2068406800F001000028EBD022
:104C40002068006820F0020021680860012084F8D4
:104C500020000020EDE7606A40F4801060620120CF
:104C6000E7E7704710B50446012102480068FBF7EA
:104C7000F2FB10BD240000207047000010B5044670
:104C8000012102480068FBF7E6FB10BD240000206C
:104C90007047000010B50446012102480068FBF788
:104CA000DAFB10BD24000020704770B50446A56DE6
:104CB00000F0C6F9064694F83500022808D0802096
:104CC000606500BF002084F8340000BF012070BD83
:104CD0002068006820F0160021680860206840699C
:104CE00020F0800021684861206C08B9A06C28B1D0
:104CF0002068006820F008002168086020680068CB
:104D000020F001002168086010E000F099F9801B94
:104D100005280BD920206065032084F8350000BFEA
:104D2000002084F8340000BF0320D0E7206800682A
:104D300000F001000028E8D194F85C103F20884082
:104D4000A860012084F8350000BF002084F83400FA
:104D500000BF00BFBBE7014691F83500022803D031
:104D60008020486501207047052081F835000868DB
:104D7000006820F001000A6810600020F3E70000DE
:104D800070B5044600F05CF906462546681C10B173
:104D900004480078054400BF00F052F9801BA84287
:104DA000FAD370BD0800002010B50446B4F5004FDA
:104DB00009D14FF40041174800F034F948BB0120F5
:104DC00004F04EF925E0B4F5805F09D14FF480512D
:104DD000104800F027F9E0B9022004F041F918E08A
:104DE000B4F5806F09D14FF480610A4800F01AF9D8
:104DF00078B9032004F034F90BE0B4F5807F08D1D2
:104E00004FF48071034800F00DF910B9042004F04C
:104E100027F910BD0018024010B504460448006888
:104E2000204020B1024804602046FFF7BDFF10BDBE
:104E3000143C0140F8B502460B4600250024002032
:104E40000021D5E0012606FA01F51E6806EA0504F0
:104E5000AC4274D11E7906F00306012E04D01E79EF
:104E600006F00306022E13D190684F000326BE40C1
:104E7000B0434F00DE68BE4030439060506801266A
:104E80008E40B0431E79C6F300168E40304350600A
:104E90001E7906F00306032E09D0D0684F000326C2
:104EA000BE40B0434F009E68BE403043D0601E7984
:104EB00006F00306022E13D1CF0802F1200656F8A1
:104EC00027004E07F70E0F26BE40B0434F07FF0ED8
:104ED0001E69BE403043CF0802F1200646F8270085
:104EE00010684F000326BE40B0431E7906F003064B
:104EF0004F00BE40304310605E6806F44036002E1E
:104F000075D000BF002600963B4E366846F48046BA
:104F1000394F3E603E46366806F48046009600BF34
:104F200000BF364E8F0856F827008E07370F0F2622
:104F3000BE40B043324EB24202D1002624E056E0D9
:104F4000304EB24201D101261EE02F4EB24201D1B5
:104F5000022619E02D4EB24201D1032614E02C4E58
:104F6000B24201D104260FE02A4EB24201D10526F9
:104F70000AE0294EB24201D1062605E0274EB24290
:104F800001D1072600E008268F073F0FBE403043BF
:104F90001A4E8F0846F82700214E3068A0435E68FD
:104FA00006F4803606B120431D4E3060361D306851
:104FB000A0435E6806F4003606B12043184E361D45
:104FC0003060361D3068A0435E6806F4801606B176
:104FD0002043134E08363060361D3068A0435E68AB
:104FE00006F4001606B120430D4E0C363060491C05
:104FF0001029FFF427AFF8BD4438024008380140BB
:10500000000002400004024000080240000C024080
:10501000001002400014024000180240001C024030
:10502000003C0140024613690B400BB1012000E037
:10503000002070470AB1816101E00B048361704771
:105040000148006870470000000000200348006825
:1050500003490978084401490860704700000020AE
:105060000800002010B50D48006840F400700B499E
:1050700008600846006840F48060086008460068E0
:1050800040F480700860032000F0C2F80F2000F0A8
:1050900007F800F04BF8002010BD0000003C024073
:1050A00070B588B00446002500260022214636202F
:1050B00000F070F8362000F05DF800BF002001908D
:1050C0001648006840F0100014490860084600685F
:1050D00000F01000019000BF00BF02A903A800F07B
:1050E0008FF900F0B5F945000D48B5FBF0F0461E0C
:1050F0000C480D49086040F2E7310B48C16046603A
:1051000000210161816000F0C5FC20B9064800F073
:1051100067FD08B070BD0120FBE700004038024089
:1051200040420F0000100040E004002008B500BF1E
:10513000002000900E48006840F480400C49086050
:105140000846006800F48040009000BF00BF00BF28
:1051500000200090081F006840F08050091F086080
:105160000846006800F08050009000BF00BF08BDF6
:105170004438024001460846002809DB00F01F03BE
:1051800001229A4043099B0003F1E023C3F8002168
:1051900000BF70472DE9F05F80460D461646002798
:1051A00003F02AFD074639462A46334601F0070038
:1051B000C0F1070ABAF1040F02D94FF0040A01E066
:1051C000C0F1070AD14600F1040ABAF1070F02D272
:1051D0004FF0000A01E0A0F1030AD4464FF0010AA3
:1051E0000AFA09FAAAF1010A0AEA020A0AFA0CFA08
:1051F0004FF0010B0BFA0CFBABF1010B0BEA030BAD
:105200004AEA0B042146404603F0FEFCBDE8F09F4D
:1052100000BF00F00702064B19684FF6FF03194064
:10522000044B0B4343EA0221014B196000BF704756
:105230000CED00E00000FA0500BF00BF00BF00BF9A
:1052400000BFBFF34F8F00BF00BF00BF0948006819
:1052500000F4E06008490843001D0649086000BFEB
:1052600000BF00BFBFF34F8F00BF00BF00BF00BF34
:1052700000BFFDE70CED00E00000FA0570B5044644
:105280000D460CB9012070BD5848006800F00700B9
:10529000A84209D255490D700846006800F0070081
:1052A000A84201D00120EEE7207800F00200022899
:1052B0001DD1207800F00400042805D14C48006876
:1052C00040F4E0504A490860207800F008000828BF
:1052D00005D14748006840F46040454908604448AB
:1052E000006820F0F000A168084341490860207878
:1052F00000F00100A8B36068012807D13C480838D5
:105300000068C0F34040B8B90120BCE760680228DB
:1053100002D06068032807D1354808380068C0F318
:10532000406048B90120AEE7314808380068C0F352
:10533000400008B90120A6E72D48006820F00300CE
:10534000616808432A490860FFF77AFE064609E0CB
:10535000FFF776FE801B41F28831884202D9032094
:1053600091E707E02248006800F00C006168B0EBAC
:10537000810FEDD11D48006800F00700A84209D94F
:105380001A490D700846006800F00700A84201D0D5
:10539000012078E7207800F00400042807D11448A1
:1053A000006820F4E050E168084311490860207863
:1053B00000F00800082808D10D48006820F460407B
:1053C000216940EAC1000A49086000F061F8084913
:1053D0000968C1F30311074A515CC84006490860D7
:1053E00006480068FFF75CFE00204CE7003C0240E6
:1053F00008380240E8A600080C0000200400002045
:105400000F2202600D4A126802F0030242600B4A4A
:10541000126802F0F0028260084A126802F4E05258
:10542000C260064A126802F46042D2080261044A6D
:10543000126802F007020A60704700000838024054
:10544000003C024001480068704700000C0000204A
:1054500000B5FFF7F7FF04490968C1F38221034A49
:10546000515CC84000BD000008380240F8A60008A2
:1054700000B5FFF7E7FF04490968C1F34231034A69
:10548000515CC84000BD000008380240F8A6000882
:105490002DE9F047002400250026A1462548006894
:1054A00000F00C0020B1042805D008283AD105E00E
:1054B000DFF8849039E0DFF8849036E01D48001F63
:1054C000006800F03F041B48001F006800F48000E3
:1054D00078B11A481749091F0968C1F38811A0FB60
:1054E00001700146224600233846FAF769FE054658
:1054F0000EE011480F49091F0968C1F38811A0FB8C
:1055000001700146224600233846FAF759FE054647
:105510000848001F0068C0F30140401C4600B5FB6E
:10552000F6F902E0DFF8109000BF00BF4846BDE882
:10553000F0870000083802400024F40000127A00CE
:10554000F8B504460CB90120F8BD207800F0010040
:10555000002874D0F948006800F00C0004280DD031
:10556000F648006800F00C00082813D1F348001F2B
:10557000006800F48000B0F5800F0BD1EF480838C8
:105580000068C0F34040002859D06068002856D118
:105590000120D9E700BF6068B0F5803F08D1E74837
:1055A0000838006840F48030E449083908601EE09B
:1055B0006068B0F5A02F0DD1E0480838006840F4CD
:1055C0008020DE49083908600846006840F48030D1
:1055D00008600CE0D9480838006820F48030D749CA
:1055E000083908600846006820F48020086000BF81
:1055F000606890B1FFF724FD054606E0FFF720FD47
:10560000401B642801D903209EE7CC480838006875
:10561000C0F340400028F1D011E0FFF711FD05462E
:1056200006E0FFF70DFD401B642801D903208BE73E
:10563000C24808380068C0F340400028F1D1207803
:1056400000F0020002285FD1BC48006800F00C00A6
:1056500058B1BA48006800F00C0008281CD1B748BF
:10566000001F006800F48000B0B9B4480838006832
:10567000C0F3400020B1E068012801D0012063E7B9
:10568000AE480838006820F0F800216940EAC100FF
:10569000AA490839086037E0E06800B30120A8494A
:1056A0000860FFF7CDFC054606E0FFF7C9FC401B8C
:1056B000022801D9032047E7A04808380068C0F352
:1056C00040000028F1D09D480838006820F0F8001C
:1056D000216940EAC10099490839086014E00020B6
:1056E00097490860FFF7ACFC054606E0FFF7A8FC09
:1056F000401B022801D9032026E79048083800689B
:10570000C0F340000028F1D1207800F008000828FC
:105710002CD16069A8B101208A490860FFF790FC8C
:10572000054606E0FFF78CFC401B022801D9032048
:105730000AE782486C300068C0F340000028F1D0CE
:1057400014E000207F490860FFF77AFC054606E078
:10575000FFF776FC401B022801D90320F4E67748C6
:105760006C300068C0F340000028F1D1207800F0D0
:105770000400042870D1002770483830006800F019
:10578000805090B900BF002000906C48383000680D
:1057900040F080506949383108600846006800F0E0
:1057A0008050009000BF00BF01276748006800F4E8
:1057B0008070B0B96448006840F480706249086045
:1057C000FFF73EFC054606E0FFF73AFC401B0228C7
:1057D00001D90320B8E65C48006800F48070002816
:1057E000F2D000BFA068012808D154486830006892
:1057F00040F001005149683108601DE0A0680528AB
:105800000DD14E486830006840F004004B496831C3
:1058100008600846006840F0010008600CE0474856
:105820006830006820F0010044496831086008468B
:10583000006820F00400086000BFA068A8B1FFF76E
:10584000FFFB054609E0FFF7FBFB401B41F28831F7
:10585000884202D9032077E626E03848683000689D
:10586000C0F340000028EED013E0FFF7E9FB054647
:1058700008E0FFF7E5FB401B41F28831884201D97F
:10588000032061E62D4868300068C0F3400000281E
:10589000EFD1012F07D129483830006820F080501F
:1058A00026493831086000BFA069002845D0234848
:1058B000006800F00C0008285DD0A069022845D1DE
:1058C00000201F490866FFF7BBFB054606E0FFF70F
:1058D000B7FB401B022801D9032035E617480838DA
:1058E0000068C0F340600028F1D1D4E90701084303
:1058F000616A40EA81110122A06AC2EB500041EACC
:1059000000412C20005D41EA00600C49091F08603D
:1059100001200B490866FFF793FB054606E0FFF7F9
:105920008FFB401B022801D903200DE603480838ED
:105930000068C0F340600028F1D049E00838024018
:1059400000004742800E474200700040002021497D
:105950000866FFF775FB054606E0FFF771FB401B85
:10596000022801D90320EFE51B480068C0F340601E
:105970000028F2D12CE0A069012800D1E4E5164806
:10598000001D0668A069012820D006F48001E069A6
:1059900081421BD106F03F01206A814216D147F6B1
:1059A000C0703040616AB0EB811F0FD106F4403106
:1059B0000122A06AC2EB5000B1EB004F06D106F005
:1059C00070612C20005DB1EB006F01D00120BBE5C0
:1059D0000020B9E500004742003802407047704798
:1059E00030B502460B4600BF92F83C00012801D1B9
:1059F000022030BD012082F83C0000BF022082F866
:105A00003D00106844681068816824F070041868CC
:105A1000044310684460184D1068A8421BD01068F9
:105A2000B0F1804F17D0154D1068A84213D0144D17
:105A30001068A8420FD0134D1068A8420BD0124D29
:105A40001068A84207D0114D1068A84203D0104D2D
:105A50001068A84205D121F0800158680143106800
:105A60008160012082F83D0000BF002082F83C00E8
:105A700000BF00BFBDE7000000000140000400407F
:105A800000080040000C00400004014000400140BC
:105A90000018004010B504460CB9012010BD94F860
:105AA0003D0028B9002084F83C00204600F026F88C
:105AB000022084F83D00211D206802F0C5FC012071
:105AC00084F8460000BF84F83E0001213F200155C4
:105AD000402001554120015500BF00BF012084F83E
